{
  "contractName": "VotingSystem",
  "abi": [
    {
      "inputs": [],
      "stateMutability": "nonpayable",
      "type": "constructor"
    },
    {
      "inputs": [
        {
          "internalType": "address",
          "name": "",
          "type": "address"
        }
      ],
      "name": "candidates",
      "outputs": [
        {
          "internalType": "address",
          "name": "candidateAddress",
          "type": "address"
        },
        {
          "internalType": "string",
          "name": "name",
          "type": "string"
        },
        {
          "internalType": "uint256",
          "name": "voteCount",
          "type": "uint256"
        }
      ],
      "stateMutability": "view",
      "type": "function"
    },
    {
      "inputs": [],
      "name": "owner",
      "outputs": [
        {
          "internalType": "address",
          "name": "",
          "type": "address"
        }
      ],
      "stateMutability": "view",
      "type": "function"
    },
    {
      "inputs": [],
      "name": "totalCandidates",
      "outputs": [
        {
          "internalType": "uint256",
          "name": "",
          "type": "uint256"
        }
      ],
      "stateMutability": "view",
      "type": "function"
    },
    {
      "inputs": [
        {
          "internalType": "address",
          "name": "",
          "type": "address"
        }
      ],
      "name": "voters",
      "outputs": [
        {
          "internalType": "bool",
          "name": "",
          "type": "bool"
        }
      ],
      "stateMutability": "view",
      "type": "function"
    },
    {
      "inputs": [
        {
          "internalType": "address",
          "name": "_candidateAddress",
          "type": "address"
        },
        {
          "internalType": "string",
          "name": "_name",
          "type": "string"
        }
      ],
      "name": "addCandidate",
      "outputs": [],
      "stateMutability": "nonpayable",
      "type": "function"
    },
    {
      "inputs": [
        {
          "internalType": "address",
          "name": "_candidateAddress",
          "type": "address"
        }
      ],
      "name": "vote",
      "outputs": [],
      "stateMutability": "nonpayable",
      "type": "function"
    },
    {
      "inputs": [
        {
          "internalType": "address",
          "name": "_candidateAddress",
          "type": "address"
        }
      ],
      "name": "getVoteCount",
      "outputs": [
        {
          "internalType": "uint256",
          "name": "",
          "type": "uint256"
        }
      ],
      "stateMutability": "view",
      "type": "function"
    }
  ],
  "bytecode": "0x6080604052348015600e575f80fd5b50335f806101000a81548173ffffffffffffffffffffffffffffffffffffffff021916908373ffffffffffffffffffffffffffffffffffffffff160217905550610ed48061005b5f395ff3fe608060405234801561000f575f80fd5b506004361061007b575f3560e01c80638da5cb5b116100595780638da5cb5b146100eb5780639a594f0614610109578063a3ec138d14610125578063e652f4cc146101555761007b565b80633866965c1461007f5780636dd7d8ea1461009d5780638ab66a90146100b9575b5f80fd5b610087610185565b6040516100949190610729565b60405180910390f35b6100b760048036038101906100b291906107a4565b61018b565b005b6100d360048036038101906100ce91906107a4565b610330565b6040516100e29392919061084e565b60405180910390f35b6100f36103fb565b604051610100919061088a565b60405180910390f35b610123600480360381019061011e9190610904565b61041e565b005b61013f600480360381019061013a91906107a4565b6106ab565b60405161014c919061097b565b60405180910390f35b61016f600480360381019061016a91906107a4565b6106c8565b60405161017c9190610729565b60405180910390f35b60015481565b60035f3373ffffffffffffffffffffffffffffffffffffffff1673ffffffffffffffffffffffffffffffffffffffff1681526020019081526020015f205f9054906101000a900460ff1615610215576040517f08c379a000000000000000000000000000000000000000000000000000000000815260040161020c906109de565b60405180910390fd5b5f73ffffffffffffffffffffffffffffffffffffffff168173ffffffffffffffffffffffffffffffffffffffff1603610283576040517f08c379a000000000000000000000000000000000000000000000000000000000815260040161027a90610a46565b60405180910390fd5b600160035f3373ffffffffffffffffffffffffffffffffffffffff1673ffffffffffffffffffffffffffffffffffffffff1681526020019081526020015f205f6101000a81548160ff02191690831515021790555060025f8273ffffffffffffffffffffffffffffffffffffffff1673ffffffffffffffffffffffffffffffffffffffff1681526020019081526020015f206002015f81548092919061032890610a91565b919050555050565b6002602052805f5260405f205f91509050805f015f9054906101000a900473ffffffffffffffffffffffffffffffffffffffff169080600101805461037490610b05565b80601f01602080910402602001604051908101604052809291908181526020018280546103a090610b05565b80156103eb5780601f106103c2576101008083540402835291602001916103eb565b820191905f5260205f20905b8154815290600101906020018083116103ce57829003601f168201915b5050505050908060020154905083565b5f8054906101000a900473ffffffffffffffffffffffffffffffffffffffff1681565b5f8054906101000a900473ffffffffffffffffffffffffffffffffffffffff1673ffffffffffffffffffffffffffffffffffffffff163373ffffffffffffffffffffffffffffffffffffffff16146104ab576040517f08c379a00000000000000000000000000000000000000000000000000000000081526004016104a290610b7f565b60405180910390fd5b5f73ffffffffffffffffffffffffffffffffffffffff1660025f8573ffffffffffffffffffffffffffffffffffffffff1673ffffffffffffffffffffffffffffffffffffffff1681526020019081526020015f205f015f9054906101000a900473ffffffffffffffffffffffffffffffffffffffff1673ffffffffffffffffffffffffffffffffffffffff1614610577576040517f08c379a000000000000000000000000000000000000000000000000000000000815260040161056e90610be7565b60405180910390fd5b60015f81548092919061058990610a91565b919050555060405180606001604052808473ffffffffffffffffffffffffffffffffffffffff16815260200183838080601f0160208091040260200160405190810160405280939291908181526020018383808284375f81840152601f19601f8201169050808301925050505050505081526020015f81525060025f8573ffffffffffffffffffffffffffffffffffffffff1673ffffffffffffffffffffffffffffffffffffffff1681526020019081526020015f205f820151815f015f6101000a81548173ffffffffffffffffffffffffffffffffffffffff021916908373ffffffffffffffffffffffffffffffffffffffff16021790555060208201518160010190816106989190610dcf565b5060408201518160020155905050505050565b6003602052805f5260405f205f915054906101000a900460ff1681565b5f60025f8373ffffffffffffffffffffffffffffffffffffffff1673ffffffffffffffffffffffffffffffffffffffff1681526020019081526020015f20600201549050919050565b5f819050919050565b61072381610711565b82525050565b5f60208201905061073c5f83018461071a565b92915050565b5f80fd5b5f80fd5b5f73ffffffffffffffffffffffffffffffffffffffff82169050919050565b5f6107738261074a565b9050919050565b61078381610769565b811461078d575f80fd5b50565b5f8135905061079e8161077a565b92915050565b5f602082840312156107b9576107b8610742565b5b5f6107c684828501610790565b91505092915050565b6107d881610769565b82525050565b5f81519050919050565b5f82825260208201905092915050565b8281835e5f83830152505050565b5f601f19601f8301169050919050565b5f610820826107de565b61082a81856107e8565b935061083a8185602086016107f8565b61084381610806565b840191505092915050565b5f6060820190506108615f8301866107cf565b81810360208301526108738185610816565b9050610882604083018461071a565b949350505050565b5f60208201905061089d5f8301846107cf565b92915050565b5f80fd5b5f80fd5b5f80fd5b5f8083601f8401126108c4576108c36108a3565b5b8235905067ffffffffffffffff8111156108e1576108e06108a7565b5b6020830191508360018202830111156108fd576108fc6108ab565b5b9250929050565b5f805f6040848603121561091b5761091a610742565b5b5f61092886828701610790565b935050602084013567ffffffffffffffff81111561094957610948610746565b5b610955868287016108af565b92509250509250925092565b5f8115159050919050565b61097581610961565b82525050565b5f60208201905061098e5f83018461096c565b92915050565b7f596f75206861766520616c726561647920766f746564000000000000000000005f82015250565b5f6109c86016836107e8565b91506109d382610994565b602082019050919050565b5f6020820190508181035f8301526109f5816109bc565b9050919050565b7f496e76616c69642063616e6469646174652061646472657373000000000000005f82015250565b5f610a306019836107e8565b9150610a3b826109fc565b602082019050919050565b5f6020820190508181035f830152610a5d81610a24565b9050919050565b7f4e487b71000000000000000000000000000000000000000000000000000000005f52601160045260245ffd5b5f610a9b82610711565b91507fffffffffffffffffffffffffffffffffffffffffffffffffffffffffffffffff8203610acd57610acc610a64565b5b600182019050919050565b7f4e487b71000000000000000000000000000000000000000000000000000000005f52602260045260245ffd5b5f6002820490506001821680610b1c57607f821691505b602082108103610b2f57610b2e610ad8565b5b50919050565b7f796f7520617265206e6f7420746865206f776e657200000000000000000000005f82015250565b5f610b696015836107e8565b9150610b7482610b35565b602082019050919050565b5f6020820190508181035f830152610b9681610b5d565b9050919050565b7f43616e64696461746520616c72656164792065786973747300000000000000005f82015250565b5f610bd16018836107e8565b9150610bdc82610b9d565b602082019050919050565b5f6020820190508181035f830152610bfe81610bc5565b9050919050565b7f4e487b71000000000000000000000000000000000000000000000000000000005f52604160045260245ffd5b5f819050815f5260205f209050919050565b5f6020601f8301049050919050565b5f82821b905092915050565b5f60088302610c8e7fffffffffffffffffffffffffffffffffffffffffffffffffffffffffffffffff82610c53565b610c988683610c53565b95508019841693508086168417925050509392505050565b5f819050919050565b5f610cd3610cce610cc984610711565b610cb0565b610711565b9050919050565b5f819050919050565b610cec83610cb9565b610d00610cf882610cda565b848454610c5f565b825550505050565b5f90565b610d14610d08565b610d1f818484610ce3565b505050565b5b81811015610d4257610d375f82610d0c565b600181019050610d25565b5050565b601f821115610d8757610d5881610c32565b610d6184610c44565b81016020851015610d70578190505b610d84610d7c85610c44565b830182610d24565b50505b505050565b5f82821c905092915050565b5f610da75f1984600802610d8c565b1980831691505092915050565b5f610dbf8383610d98565b9150826002028217905092915050565b610dd8826107de565b67ffffffffffffffff811115610df157610df0610c05565b5b610dfb8254610b05565b610e06828285610d46565b5f60209050601f831160018114610e37575f8415610e25578287015190505b610e2f8582610db4565b865550610e96565b601f198416610e4586610c32565b5f5b82811015610e6c57848901518255600182019150602085019450602081019050610e47565b86831015610e895784890151610e85601f891682610d98565b8355505b6001600288020188555050505b50505050505056fea264697066735822122063dca80ea03dab1232bb1d5fd4dd7e859e6acad6f1c61a90876256c5497d840e64736f6c634300081a0033",
  "immutableReferences": {},
  "source": "// SPDX-License-Identifier: MIT\r\npragma solidity ^0.8.0;\r\n\r\ncontract VotingSystem {\r\n    ///////// State variables//////////\r\n\r\n    address public owner;            // it will store owner address        \r\n    uint256 public totalCandidates;  //it will store all candidates        \r\n\r\n    ////////////struct/////////////\r\n    struct Candidate {\r\n        address candidateAddress;\r\n        string name;\r\n        uint256 voteCount;\r\n    }\r\n\r\n    ////////////mapping/////////////\r\n    mapping(address => Candidate) public candidates; //this mapping stores the candidates\r\n    mapping(address => bool) public voters;          //this mapping work as count voter and store all address\r\n\r\n    /////////// Modifiers///////////\r\n    modifier onlyOwner() {\r\n        require(msg.sender == owner, \"you are not the owner\");\r\n        _;\r\n    }\r\n\r\n    ///////////Constructor//////////\r\n    constructor() {\r\n        owner = msg.sender;   //only owner can deploy can call\r\n    }\r\n\r\n    /////////////////Functions///////////////////////\r\n\r\n    // Function to add a new candidate (only owner can call this)\r\n    function addCandidate(address _candidateAddress, string calldata _name) external onlyOwner {\r\n        require(candidates[_candidateAddress].candidateAddress == address(0), \"Candidate already exists\");\r\n        totalCandidates++;\r\n        candidates[_candidateAddress] = Candidate(_candidateAddress, _name, 0);\r\n    }\r\n\r\n    // Function to cast a vote\r\n    function vote(address _candidateAddress) external {\r\n        require(!voters[msg.sender], \"You have already voted\");\r\n        require(_candidateAddress != address(0), \"Invalid candidate address\");\r\n\r\n        voters[msg.sender] = true;\r\n        candidates[_candidateAddress].voteCount++;\r\n    }\r\n\r\n    // Function to get the vote count of a candidate\r\n    function getVoteCount(address _candidateAddress) external view returns (uint256) {\r\n        return candidates[_candidateAddress].voteCount;\r\n    }\r\n}\r\n",
  "sourcePath": "C:\\Users\\HP\\OneDrive\\Desktop\\voting\\contracts\\voting.sol",
  "compiler": {
    "name": "solc",
    "version": "0.8.26+commit.8a97fa7a.Emscripten.clang"
  },
  "schemaVersion": "3.4.16",
  "updatedAt": "2024-06-29T15:38:28.380Z",
  "devdoc": {
    "kind": "dev",
    "methods": {},
    "version": 1
  },
  "userdoc": {
    "kind": "user",
    "methods": {},
    "version": 1
  }
}